:1000000000700020E5B30000454F010039B1000049
:1000100039B1000039B1000039B1000039B1000038
:1000200039B1000039B1000039B10000FDAB00006A
:100030007914010039B1000091AB0000174F0100A5
:1000400075B2000075B2000075B2000075B2000014
:1000500075B2000075B2000075B2000075B2000004
:1000600075B2000075B2000075B2000075B20000F4
:1000700075B2000075B2000075B2000075B20000E4
:1000800075B2000075B2000075B2000075B20000D4
:1000900075B2000075B2000075B2000075B20000C4
:1000A00075B2000075B2000075B2000075B20000B4
:1000B00075B2000075B2000075B2000075B20000A4
:1000C00075B2000075B2000075B2000075B2000094
:1000D00075B2000075B2000075B2000075B2000084
:1000E00075B2000075B2000075B2000075B2000074
:1000F00075B2000075B2000075B2000075B2000064
:10010000084BC0F307229A5C0F2A05D803EBC20301
:10011000D3F80021904202D000235B68FFDED3F8C1
:1001200004017047C8C60100000000000000000084
:1001300000000000000000000000000000000000BF
:1001400000000000000000000000000000000000AF
:10015000000000000000000000000000000000009F
:10016000000000000000000000000000000000008F
:10017000000000000000000000000000000000007F
:10018000000000000000000000000000000000006F
:10019000000000000000000000000000000000005F
:1001A000000000000000000000000000000000004F
:1001B000000000000000000000000000000000003F
:1001C000000000000000000000000000000000002F
:1001D000000000000000000000000000000000001F
:1001E000000000000000000000000000000000000F
:1001F00000000000000000000000000000000000FF
:100200000A4BC0F30722C1B29A5C5B5C13446E2BAD
:1002100009DC0C2206495A438B188A5890420CBFBD
:100220001846002070470020704700BF48C80100F2
:10023000DC1C0120F8B5074C06460F460025236854
:1002400013B139462046B04701356F2D04F10C0437
:10025000F5D1F8BDDC1C012000000000000000000A
:10026000000000000000000000000000000000008E
:10027000000000000000000000000000000000007E
:10028000000000000000000000000000000000006E
:10029000000000000000000000000000000000005E
:1002A000000000000000000000000000000000004E
:1002B000000000000000000000000000000000003E
:1002C000000000000000000000000000000000002E
:1002D000000000000000000000000000000000001E
:1002E000000000000000000000000000000000000E
:1002F00000000000000000000000000000000000FE
:1003000001F0FF01102A2BDB10F0070F08D010F8C6
:10031000013B013A8B422DD010F0070F42B3F6D1CA
:10032000F0B441EA012141EA014122F007047FF0E3
:1003300000070023F0E80256083C85EA010586EA3A
:10034000010685FA47F5A3FA87F586FA47F6A5FA76
:1003500087F68EB9EED1F0BC01F0FF0102F0070282
:1003600032B110F8013B013A83EA010313B1F8D12D
:100370000020704701387047002D06BF354603380E
:10038000073815F0010F07D1013015F4807F02BF47
:10039000013015F4C03F0130F0BC0138704700BF98
:1003A00080F0004002E000BF81F0004142001FBF2A
:1003B0005FEA410392EA030F7FEA226C7FEA236C33
:1003C0006AD04FEA1262D2EB1363C1BFD218414028
:1003D00048404140B8BF5B42192B88BF704710F0BE
:1003E000004F40F4000020F07F4018BF404211F061
:1003F000004F41F4000121F07F4118BF494292EAC9
:10040000030F3FD0A2F1010241FA03FC10EB0C00F4
:10041000C3F1200301FA03F100F0004302D5494281
:1004200060EB4000B0F5000F13D3B0F1807F06D32E
:1004300040084FEA310102F10102FE2A51D2B1F126
:10044000004F40EBC25008BF20F0010040EA03001B
:100450007047490040EB000010F4000FA2F10102C8
:10046000EDD1B0FA80FCACF1080CB2EB0C0200FA52
:100470000CF0AABF00EBC25052421843BCBFD040A0
:100480001843704792F0000F81F4000106BF80F41A
:1004900000000132013BB5E74FEA41037FEA226CDD
:1004A00018BF7FEA236C21D092EA030F04D092F0A8
:1004B000000F08BF0846704790EA010F1CBF0020DC
:1004C000704712F07F4F04D1400028BF40F0004039
:1004D000704712F100723CBF00F50000704700F059
:1004E000004343F0FE4040F4000070477FEA226280
:1004F00016BF08467FEA23630146420206BF5FEA51
:10050000412390EA010F40F4800070474FF0000350
:1005100004E000BF10F0004348BF40425FEA000C17
:1005200008BF704743F0964301464FF000001CE0BF
:1005300050EA010208BF70474FF000030AE000BF15
:1005400050EA010208BF704711F0004302D5404253
:1005500061EB41015FEA010C02BF844601460020C5
:1005600043F0B64308BFA3F18053A3F50003BCFAE0
:100570008CF2083AA3EBC25310DB01FA02FC63448D
:1005800000FA02FCC2F12002BCF1004F20FA02F294
:1005900043EB020008BF20F00100704702F1200287
:1005A00001FA02FCC2F1200250EA4C0021FA02F2E8
:1005B00043EB020008BF20EADC7070474FF0FF0CED
:1005C0001CEAD0521EBF1CEAD15392EA0C0F93EAE8
:1005D0000C0F6FD01A4480EA010C400218BF5FEA8A
:1005E00041211ED04FF0006343EA501043EA5111FD
:1005F000A0FB01310CF00040B1F5000F3EBF4900F7
:1006000041EAD3715B0040EA010062F17F02FD2AFA
:100610001DD8B3F1004F40EBC25008BF20F00100DD
:10062000704790F0000F0CF0004C08BF49024CEAF4
:10063000502040EA51207F3AC2BFD2F1FF0340EA86
:10064000C250704740F400004FF00003013A5DDCF7
:1006500012F1190FDCBF00F000407047C2F1000238
:10066000410021FA02F1C2F1200200FA02FC5FEA25
:10067000310040F1000053EA4C0308BF20EADC706F
:10068000704792F0000F00F0004C02BF400010F4E1
:10069000000F013AF9D040EA0C0093F0000F01F08E
:1006A000004C02BF490011F4000F013BF9D041EAB0
:1006B0000C018FE70CEAD15392EA0C0F18BF93EAB2
:1006C0000C0F0AD030F0004C18BF31F0004CD8D1DC
:1006D00080EA010000F00040704790F0000F17BF63
:1006E00090F0004F084691F0000F91F0004F14D0A9
:1006F00092EA0C0F01D142020FD193EA0C0F03D101
:100700004B0218BF084608D180EA010000F0004003
:1007100040F0FE4040F40000704740F0FE4040F4DE
:10072000400070474FF0FF0C1CEAD0521EBF1CEA7D
:10073000D15392EA0C0F93EA0C0F69D0A2EB03029B
:1007400080EA010C49024FEA402037D04FF0805335
:1007500043EA111143EA10130CF000408B4238BFFA
:100760005B0042F17D024FF4000C8B4224BF5B1A08
:1007700040EA0C00B3EB510F24BFA3EB510340EA56
:100780005C00B3EB910F24BFA3EB910340EA9C0004
:10079000B3EBD10F24BFA3EBD10340EADC001B0174
:1007A00018BF5FEA1C1CE0D1FD2A3FF650AF8B4218
:1007B00040EBC25008BF20F0010070470CF0004C25
:1007C0004CEA50207F32C2BFD2F1FF0340EAC25050
:1007D000704740F400004FF00003013A37E792F011
:1007E000000F00F0004C02BF400010F4000F013A6F
:1007F000F9D040EA0C0093F0000F01F0004C02BF6A
:10080000490011F4000F013BF9D041EA0C0195E7D2
:100810000CEAD15392EA0C0F08D142027FF47DAF6B
:1008200093EA0C0F7FF470AF084676E793EA0C0F5B
:1008300004D14B023FF44CAF08466EE730F0004C59
:1008400018BF31F0004CCAD130F000427FF45CAFE9
:1008500031F000437FF43CAF5FE700BF4FEA400256
:10086000B2F1FE4F0FD34FF09E03B3EB12620DD9DE
:100870004FEA002343F0004310F0004F23FA02F048
:1008800018BF404270474FF00000704712F1610FEF
:1008900001D1420205D110F0004008BF6FF00040C6
:1008A00070474FF0000070477BB972B90029BEBF96
:1008B00000204FF0004106E008BF00281CBF6FF089
:1008C00000414FF0FF3000F057B8ADF1080C6DE972
:1008D00004CE002909DB002B1ADB01F0E3FBDDF875
:1008E00004E0DDE9022304B07047404261EB4101BE
:1008F000002B1BDB01F0D6FBDDF804E0DDE9022371
:1009000004B0404261EB4101524263EB4303704744
:10091000524263EB430301F0C5FBDDF804E0DDE97F
:10092000022304B0404261EB41017047524263EB45
:10093000430301F0B7FBDDF804E0DDE9022304B076
:10094000524263EB4303704753B94AB9002908BFC9
:1009500000281CBF4FF0FF314FF0FF3000F00CB803
:10096000ADF1080C6DE904CE01F09CFBDDF804E06C
:10097000DDE9022304B07047704700BF1FB51C4675
:10098000094B1B680546D86852B1084B0091CDE968
:10099000013207492B46224600F021F801F089FD7B
:1009A000044B1A46F2E700BF002000202BC60100CE
:1009B00038C601000C9F010008B513460022FFF75E
:1009C000DDFF00BF0CB407B504AB53F8042B019353
:1009D00000F0A2F803B05DF804EB02B070470EB46B
:1009E00003B5014603AB064853F8042B0068019396
:1009F00000F092F802B05DF804EB03B0704700BF5E
:100A000000200020F8B5CE1C26F0030608360C2E78
:100A100038BF0C26002E074601DBB14203D90C2358
:100A20003B600020F8BD214D01F084FD2A6814468A
:100A300094B96B6823B92146384600F0F9FA68602A
:100A40003146384600F0F4FA431C23D10C233B60B6
:100A5000384601F070FDE4E723689B1B17D40B2B8D
:100A600003D923601C44266004E06368A2420CBFE3
:100A70002B605360384601F05EFD04F10B00231D2E
:100A800020F00700C21ACDD01B1AA350CAE7224695
:100A90006468CDE7C41C24F00304A042E3D0211A0B
:100AA000384600F0C5FA0130DDD1CFE794220020AE
:100AB0009368013B002B10B4936007DA9469A3425A
:100AC00001DB0A2902D110BC00F0E8BB1368581CF6
:100AD00010601970084610BC7047F8B506460F46FE
:100AE0001446D518AC4201D1002007E03A4614F86C
:100AF000011B3046FFF7DCFF431CF3D1F8BD38B5CE
:100B000093681446002513B95360184638BD00F0A9
:100B1000DDFDC4E90155F9E72DE9F04F0E469DB022
:100B200014461D46074618B1836B0BB900F070FDE3
:100B3000B389180756D53369002B53D00023099386
:100B400020238DF82930DFF8AC91039530238DF800
:100B50002A304FF0010A23461D4613F8012B0AB133
:100B6000252AF9D1B5EB040B0BD05B462246314662
:100B70003846FFF7B2FF013000F0AE80099B5B44BE
:100B800009932B78002B00F0A78000234FF0FF3251
:100B9000CDE905230135049307938DF853301A935B
:100BA0002C46052214F8011B5248FFF7A9FB049BB1
:100BB00018BBD90644BF20228DF853201A0744BF22
:100BC0002B228DF853202A782A2A1ED0079A2C46E9
:100BD00000200A25214611F8013B303B092B56D94C
:100BE000C8B91FE03146384600F09EFB0028A5D06A
:100BF0004FF0FF301DB0BDE8F08FA0EB09000AFAFE
:100C000000F0184304902546CAE7039A111D1268A4
:100C10000391002A01DB079204E0524243F00203F1
:100C20000792049323782E2B0CD163782A2B33D18F
:100C3000039B1A1D1B680392002BB8BF4FF0FF33B4
:100C4000023405932C4D217803222846FFF758FBE8
:100C500038B14023401B03FA00F0049B03430134E6
:100C6000049314F8011B25488DF828100622FFF77D
:100C700047FB002835D0224B13BB039B073323F0DF
:100C8000070308330393099B4344099363E705FB78
:100C9000023201200C469DE70023013405931946DA
:100CA0000A25204610F8012B303A092A03D9002BD7
:100CB000C8D00591C6E705FB012101230446F0E7F2
:100CC00003AB009332460F4B04A93846AFF30080C4
:100CD000B0F1FF3F8046D6D1B3895B0688D409982E
:100CE00088E703AB00933246064B04A9384600F070
:100CF0008AF8EDE767C601006DC6010071C6010004
:100D000000000000DB0A000013460A4601460248C4
:100D10000068FFF701BF00BF002000202DE9F04769
:100D200091461F468A680B69DDF820809342B8BF60
:100D30001346C9F8003091F8432006460C4612B11C
:100D40000133C9F800302368990642BFD9F8003052
:100D50000233C9F80030256815F0060507D104F103
:100D6000190AE368D9F800209B1AAB4228DC94F8F2
:100D700043302268003318BF012392062DD404F1BA
:100D8000430239463046C047013020D02368E56829
:100D9000D9F8002003F00603042B08BFAD1AA3689E
:100DA00022690CBF25EAE57500259342C4BF9B1A52
:100DB000ED184FF000091A344D451AD1002008E013
:100DC0000123524639463046C047013003D14FF027
:100DD000FF30BDE8F0870135C3E7E1185A1C302029
:100DE00081F84300224494F8451082F843100233FE
:100DF000C5E70123224639463046C0470130E6D0D8
:100E000009F10109D8E72DE9F04306460C4601F146
:100E10004300097E85B06E29984617460C9B00F06A
:100E2000BA8024D8632939D00AD8002900F0C380B9
:100E3000582900F0918004F1420584F8421035E011
:100E4000642901D06929F6D125681A6815F0800F48
:100E500002F104012CD012681960002A03DA2D2354
:100E6000524284F84330DFF8C0C10A233FE07329BF
:100E700000F0A58008D86F2921D07029DBD1226825
:100E800042F02002226003E0752918D07829D2D1DF
:100E9000782284F84520DFF894C161E01A68111DBA
:100EA0001960136884F8423004F14205012393E08D
:100EB0001268196015F0400F18BF12B2CDE7D4F8D0
:100EC00000C01A681CF0800F02F104051D6001D0FB
:100ED000126803E01CF0400FFAD01288DFF848C116
:100EE0006F290CBF08230A23002184F8431065688A
:100EF000A560002DA2BF216821F0040121600AB97C
:100F0000002D46D00546B2FBF3F103FB112E9342B0
:100F10001CF80EE005F801ED39D9082B0BD1236838
:100F2000DA0708D5236962689A42DEBF302305F8E4
:100F3000013C05F1FF35401B2061CDF800803B46A8
:100F400003AA21463046FFF7E9FE013049D14FF0B0
:100F5000FF3005B0BDE8F083DFF8CCC084F8451061
:100F60001D68216855F8042B1D600D060BD5CD07B3
:100F700044BF41F0200121601AB9236823F0200307
:100F800023601023B0E74B0648BF92B2EFE70A4652
:100F9000B9E70546C1E71A68D4F800C06169151DB4
:100FA0001D601CF0800F136801D0196003E01CF075
:100FB000400FFAD01980002323610546BDE71A6867
:100FC000111D19601568626800212846FFF798F91D
:100FD00008B1401B606063682361002384F84330DC
:100FE000ABE723692A4639463046C0470130AED0C8
:100FF00023689B0713D4E068039B9842B8BF184648
:10100000A7E701234A4639463046C04701309ED003
:101010000135E368039A9B1AAB42F2DCEBE700254B
:1010200004F11909F5E700BF78C6010089C601007F
:1010300038B5064C00230546084623600AF0E0FB5D
:10104000431C02D1236803B12B6038BD9C220020D1
:1010500008B430B5141E9AB0054608DA8B23036035
:101060004FF0FF301AB0BDE8304001B070474FF488
:101070000273ADF8103014BF04F1FF33234603931D
:1010800006934FF6FF7301910591ADF812301D9A4A
:101090001EAB01A9009300F0F6FD431CBCBF8B23DF
:1010A0002B60002CDED0019B00221A70DAE70CB412
:1010B00030B5174B0C1E9BB01D6808DA8B232B60D4
:1010C0004FF0FF301BB0BDE8304002B070474FF426
:1010D0000273ADF8103014BF04F1FF3323460393BD
:1010E00006934FF6FF7301900590ADF812301E9AEB
:1010F0001FAB01A92846009300F0C5FD431CBCBFEF
:101100008B232B60002CDDD0019B00221A70D9E7C5
:10111000002000202DE9F047394F86460846054655
:1011200015F8014BE65D16F0080634D12D2C34D1AC
:101130002C784FF00108851C002B5CD0102B09D1B6
:10114000302C07D1287800F0DF0058284ED16C7879
:1011500010230235B8F1000F14BF4FF0004C6FF0B0
:10116000004C0027BCFBF3F9384603FB19CAA4F175
:101170003006092E18D83446A34224DD7E1C07D041
:1011800081451DD301D1A2451ADB00FB0340012795
:1011900015F8014BEBE72846C1E72B2C08BF2C784C
:1011A000B04608BF851CC7E7A4F14106192E01D837
:1011B000373CE1E7A4F16106192E04D8573CDBE780
:1011C0004FF0FF37E4E77B1C06D12223CEF8003036
:1011D000604642B9BDE8F087B8F1000F00D0404248
:1011E000002AF7D007B1691E1160F3E73024002B05
:1011F000B0D10823AEE7302CA4D00A23AAE700BF61
:101200004D90010086E713460A46014601480068F2
:1012100080E700BF0020002013460A46014601482F
:10122000006877E70020002030B5141E05469BB00B
:10123000184605DA8B232B604FF0FF301BB030BD12
:101240004FF40273ADF8103014BF04F1FF3323469E
:10125000039306934FF6FF7301910591ADF8123099
:1012600002461E9B01A9284600F00DFD431CBCBF91
:101270008B232B60002CE1D0019B00221A70DDE74C
:1012800007B5009313460A46014603480068FFF776
:10129000CBFF03B05DF804FB00200020F8B50D463D
:1012A0001446064618B1836B0BB900F0B1F9A36977
:1012B000A360A3891A0725D523691BB32369206876
:1012C000C01A6369EDB283422F4604DC21463046E2
:1012D00000F034F9E0B9A368013BA36023685A1C0D
:1012E00022601D7063690130834204D0A389DB074B
:1012F00006D50A2D04D12146304600F01FF938B931
:101300003846F8BD2146304600F00EF80028D5D00A
:101310004FF0FF37F4E7034B0A4601461868FFF722
:10132000BDBF00BF0020002038B52A4B0546186815
:101330000C4618B1836B0BB900F06AF9B4F90C30A4
:101340009AB2110722D4D00607D409222A6043F0AA
:101350004003A3814FF0FF3034E0510712D5216BD9
:1013600041B104F14003994202D0284600F06AFBE3
:1013700000232363A38923F02403A3810023636054
:1013800023692360A38943F00803A38123694BB930
:10139000A38903F42073B3F5007F03D021462846C8
:1013A00000F00FFBA28912F001030CD00023A36010
:1013B00063695B42A361236953B9B4F90C3013F03C
:1013C0008000C4D138BD920758BF6369A360F2E7BB
:1013D0000020F7E70020002000B5104B8DB06A46D2
:1013E00003F12806154618685968144603C40833E3
:1013F000B3422246F7D118689B88A3802060284614
:1014000001F016F829460246022013F0C8FD062016
:1014100000F0AFFD7F200AF0EBF900BF9AC6010093
:10142000B1F90C2093B22DE9F041054618070C469E
:101430005FD44B6842F40062002B8A8105DCCB6BE1
:10144000002B02DC0020BDE8F081A66A002EF9D056
:10145000002312F480522F682B6036D0206DA389B0
:101460005A0705D56368C01A236B0BB1E36BC01A2A
:1014700000230246A66AE1692846B047431CA389B7
:1014800006D129681D2930D82B4ACA40D6072CD549
:1014900023F400631BB200226260D9042269A38195
:1014A000226004D5421C01D12B6803B92065216B51
:1014B0002F600029C6D004F14003994202D028468B
:1014C00000F0C0FA00202063BDE7E169012328464F
:1014D000B047411CC3D12B68002BC0D01D2B01D0BD
:1014E000162B01D12F60ADE7A38943F04003A38100
:1014F000A9E70F69002FA5D09B070E6808BF4B69AD
:101500000F6018BF0023A6EB07088B60B8F1000F2F
:1015100098DD43463A46E169666A2846B0470028A6
:1015200006DCA38943F04003A3814FF0FF308AE734
:101530000744A8EB0008E9E70100402038B50D4654
:10154000044618B1836B0BB900F062F8B5F90C00D2
:1015500028B129462046BDE83840FFF761BF38BDB5
:10156000014620B9044B0549186800F0C5BF044B7B
:101570001868FFF7E3BF00BFFC8F01003D150000B6
:1015800000200020002310B50446C0E9003383602A
:1015900081810366C281C0E9043383611946082250
:1015A000583000F026FF054B2362054B6362054B64
:1015B000A362054BE461E36210BD00BF8525000016
:1015C000AB250000E325000007260000014900F0DC
:1015D00093BF00BF3D15000070B54A1E64255543FA
:1015E0000E4605F17001FFF70DFA044640B10021E7
:1015F000C0E900160C30A06005F1640200F0F9FEAD
:10160000204670BD014B1868FFF7E0BFFC8F01005A
:10161000826B10B50446D2B90D4BC3630323C0F8E7
:10162000503100F5AC73C0F85431C0F84C2104219E
:101630004068FFF7A7FF01220921A068FFF7A2FF7A
:1016400002221221E068FFF79DFF0123A36310BD72
:10165000CD150000F8B51B4B1E68B36B074613B9D8
:101660003046FFF7D5FF06F5A676D6E90134013BF3
:1016700003D53368DBB13668F7E7B4F90C50A5B988
:10168000114B2566C4E90055A560C4E90335C4E9DA
:1016900005550822294604F1580000F0AAFEC4E9C5
:1016A0000C55C4E911552046F8BD6434DFE7042128
:1016B0003846FFF791FF044630600028DBD10C2349
:1016C0003B60F0E7FC8F01000100FFFF93682DE90C
:1016D000F74F07460C4690461BB9002003B0BDE803
:1016E000F08F8B89180750D50B69002B4DD0A3893B
:1016F000D8F8006013F002096CD113F0010300F078
:101700009C804846CA46CB46BBF1000F00F00681DC
:1017100050B95A460A215046FEF7F2FD002800F063
:1017200002810130A0EB0A09206821696269D9456C
:101730004B4628BF5B46884240F2F880A5681544B6
:10174000AB4240F3F38051462A4600F038FE23684E
:101750002B44236021463846FFF7F0FE002867D16E
:10176000B9EB050940F0FC8021463846FFF7E6FE5C
:1017700000285DD1D8F80830AA44ABEB050B5D1BFF
:10178000C8F80850002DBFD1A7E721463846FFF71B
:10179000CBFD0028ABD04FF0FF309FE7D6E900A982
:1017A0000836B9F1000FF9D0D9454B46524628BF4B
:1017B0005B46E169656A3846A847002838DDD8F8F5
:1017C00008308244A9EB0009181AC8F8080000285C
:1017D000E7D182E74FF0000AD146DFF88CB1E0E7AD
:1017E000D6E9009A0836BAF1000FF9D0A289A368A9
:1017F0002068910564D5534536D812F4906F33D0E4
:1018000021696569A0EB010B05EB450505EBD57575
:101810000BF1010353446D109D4238BF1D46530523
:101820003ED529463846FFF7EDF848B90C233B6012
:10183000A38943F04003A381ADE799469A46D2E7D6
:101840005A462169019000F099FDA289019B22F47A
:10185000906242F08002A281236165615B44A5EB46
:101860000B052360A5605346534528BF53461A46CF
:1018700049462068019300F0A2FDA268019BD21A9C
:10188000A2602268134455462360D8F80830A94462
:10189000AAEB050A5D1BC8F80850002DA3D11CE770
:1018A0002A46384600F048FE03460028D4D1216974
:1018B000384600F0C7F8A38923F08003A381B5E779
:1018C0002269824202D36269524516D9534528BF24
:1018D00053461A4649461D4600F071FDA36822682A
:1018E0005B1B2A44A3602260002BCED121463846E0
:1018F000FFF724FE0028C8D09AE71A4B656AE16911
:101900009A4594BF53466FF00043384693FBF2F379
:1019100053434A46A847051EB7DC89E7D6E900AB22
:1019200000200836F0E60BF10109FDE69A4209DCD9
:10193000656AE169134638465246A847051E3FF7D7
:101940000FAF75E71A465146019300F038FD019B31
:10195000A268D21AA26022681A4422601D46FFE6DD
:10196000012007E7FEFFFF7F00FCFF7F70B50E46FA
:10197000B1F90E10002996B014461D4609DAB38954
:10198000002213F080002A6016D14FF48063236098
:1019900015E06A4600F040FB0028F0DB019A02F4F3
:1019A0007042A2F500535A425A414FF480632A60B4
:1019B0004FF40060236002E040232360104616B01D
:1019C00070BD8B8973B59D0706460C4607D504F19B
:1019D0004303236023610123636102B070BD01AB47
:1019E0006A46FFF7C3FF009905463046FFF70AF83D
:1019F00048B9B4F90C309A05EFD423F0030343F04F
:101A00000203A381E3E70E4BF363A389206043F055
:101A10008003A381009B6361019B20615BB1B4F9EA
:101A20000E10304600F00AFB28B1A38923F003030F
:101A300043F00103A381A3891D43A581CDE700BF26
:101A4000CD15000038B50546002945D051F8043CB5
:101A50000C1F002BB8BFE41800F06CFD1F4A136880
:101A6000104633B9636014602846BDE8384000F082
:101A700062BDA3420CD921686218934204BF1A6860
:101A80005B68636004BF521822600460ECE7134691
:101A90005A680AB1A242FAD919685818A0420BD163
:101AA00020680144581882421960DDD110685268DC
:101AB0005A6001441960D7E702D90C232B60D3E7A1
:101AC000206821188A4204BF11685268626004BF0E
:101AD000091821605C60C7E738BD00BF9422002070
:101AE0002DE9F0478E689E4282460C469146984604
:101AF00038D8B1F80CC01CF4906F31D062692568F9
:101B0000096902EB42026F1A02EBD27201335510DF
:101B10003B449D4238BF1D461CF4806F30D029469F
:101B2000FEF770FF064650B90C23CAF80030A389AF
:101B300043F04003A3814FF0FF30BDE8F0873A4601
:101B4000216900F01BFCA38923F4906343F0800318
:101B5000A381266165613E44ED1B2660A560464673
:101B6000464500D9464632464946206800F027FCE3
:101B7000A3689B1BA36023681E4426600020DCE74B
:101B80002A4600F0D9FC06460028E2D121695046D9
:101B9000FFF758FFC8E793682DE9F74F81460C46D9
:101BA0001646002B5ED04FF0000BD2F800A05F4627
:101BB00057B3A3689F4240D3A28912F4906F3CD0E0
:101BC00025682169A5EB0108656905EB450505EB6D
:101BD000D57508F101033B446D109D4238BF1D4689
:101BE000530544D529464846FEF70CFF88B90C2317
:101BF000C9F80030A38943F04003A3810023C6E95C
:101C000001334FF0FF302FE0DAE900B70AF1080A9C
:101C1000CEE742462169019000F0B0FBA289019B0A
:101C200022F4906242F08002A28123616561434404
:101C3000A5EB08052360A5603B46BB4228BF3B4699
:101C40001A4659462068019300F0B9FBA268019B2F
:101C5000D21AA260226813442360B368DF1BB76006
:101C6000002FD1D10020706003B0BDE8F08F2A466C
:101C7000484600F061FC03460028D6D12169484659
:101C8000FFF7E0FEB3E72DE9F04F1E468B891B06F8
:101C90009DB007460D4614460ED50B6963B9402129
:101CA000FEF7B0FE2860286120B90C233B604FF09E
:101CB000FF30C9E040236B610023099320238DF896
:101CC0002930DFF89C91039630238DF82A304FF0AD
:101CD000010A23461E4613F8012B0AB1252AF9D121
:101CE000B6EB040B0BD05B46224629463846FFF77D
:101CF000F7FE013000F0A380099B5B440993337821
:101D0000002B00F09C8000234FF0FF32CDE905232B
:101D10000136049307938DF853301A933446052205
:101D200014F8011B4E48FEF7EBFA049BC0B9D90624
:101D300044BF20228DF853201A0744BF2B228DF870
:101D4000532032782A2A13D0079A344600200A26D4
:101D5000214611F8013B303B092B4BD970B914E0F7
:101D6000A0EB09000AFA00F0184304902646D5E7D4
:101D7000039A111D12680391002A01DB079204E007
:101D8000524243F002030792049323782E2B0CD186
:101D900063782A2B33D1039B1A1D1B680392002BF7
:101DA000B8BF4FF0FF33023405932E4E2178032243
:101DB0003046FEF7A5FA38B14023801B03FA00F045
:101DC000049B03430134049314F8011B26488DF847
:101DD00028100622FEF794FA002838D0234B13BBB4
:101DE000039B073323F0070308330393099B434402
:101DF00009936EE706FB023201200C46A8E7002398
:101E00000134059319460A26204610F8012B303A72
:101E1000092A03D9002BC8D00591C6E706FB01218A
:101E200001230446F0E703AB00932A46104B04A9B4
:101E30003846AFF30080B0F1FF3F8046D6D1AB8982
:101E40005B063FF534AF09981DB0BDE8F08F03ABDA
:101E500000932A46064B04A93846FEF7D4FFEAE76A
:101E600067C601006DC6010071C6010000000000D8
:101E7000E11A000038B5D0F8484105465CB9802128
:101E8000FEF7C0FDC5F8480138B1031F7C3043F8A8
:101E9000044F8342FBD1002038BD4FF0FF30FBE7F9
:101EA0001F2970B504460D46164604D91623036053
:101EB0004FF0FF3008E0D0F8483133B1D4F8483162
:101EC00053F8250043F8256070BDFFF7D3FF0028C5
:101ED000F4D0EDE71F2938B504460D4604D9162382
:101EE00003604FF0FF3038BDD0F8482112B152F8EE
:101EF00021304BB9204600F06BF82A4601462046B7
:101F0000BDE8384000F052B8012B0AD0591C03D16B
:101F1000162303600120E6E7002442F82540284606
:101F200098470020DFE71F2938B504460D4602D93F
:101F30004FF0FF3038BDD0F8483133B1D4F84821E4
:101F400052F8253033B90120F4E7FFF793FF00285A
:101F5000F4D0EDE7591C08D0012B08D00024284606
:101F600042F8254098472046E4E70220E2E70320B4
:101F7000E0E7024B01461868FFF7ACBF00200020E5
:101F8000024B0A4601461868FFF78ABF002000206E
:101F9000014B1868FFF76EBF00200020024B01467E
:101FA0001868FFF7C0BF00BF0020002038B5074CFD
:101FB0000023054608461146236012F0FBFF431C30
:101FC00002D1236803B12B6038BD00BF9C220020E2
:101FD00012F0F2BF38B5074C0546084611460022FC
:101FE00022601A4612F0DBFF431C02D1236803B1C2
:101FF0002B6038BD9C22002038B5064C00230546D6
:102000000846236012F0CFFF431C02D1236803B1BE
:102010002B6038BD9C22002038B5074C00230546B4
:1020200008461146236012F0C9FF431C02D1236801
:1020300003B12B6038BD00BF9C22002038B5064C90
:10204000002305460846236012F0B2FF431C02D16C
:10205000236803B12B6038BD9C22002038B5074CA3
:10206000054608461146002222601A4612F09EFFDD
:10207000431C02D1236803B12B6038BD9C22002091
:1020800038B5074C054608461146002222601A461C
:1020900012F081FF431C02D1236803B12B6038BDCD
:1020A0009C2200202DE9F04F099F154604468E46DC
:1020B0001E46002B40F0CC808A42B2FA82FC4CD9FA
:1020C000BCF1000F0BD0CCF1200801FA0CFE20FA75
:1020D00008F802FA0CF548EA0E0E00FA0CF44FEA82
:1020E00015491FFA85F8BEFBF9FA210C09FB1AE322
:1020F0000AFB08FB41EA03439B452AD9EB180AF186
:10210000FF3004D29B4502D9AAF102002B44A3EB75
:102110000B03A4B2B3FBF9F209FB123302FB08F87C
:1021200044EA0344A04516D92C1902F1FF3303D227
:10213000A04501D9931E2C44A4EB080443EA0040B7
:1021400027B124FA0CF400233C607B603146BDE8E3
:10215000F08F5046DBE71346EEE702B9FFDEBCF135
:10216000000F2ED18B1A01264FEA154EAAB2B3FBEF
:10217000FEF8210C0EFB183308FB02F941EA034379
:10218000994561D9EB1808F1FF3004D2994502D97D
:10219000A8F102002B44A3EB0903A4B2B3FBFEF1A8
:1021A0000EFB11334A4344EA0344A2424ED92C1990
:1021B00001F1FF3303D2A24201D98B1E2C44A41A91
:1021C000BCE7CCF1200E02FA0CF521FA0EF901FA67
:1021D0000CF320FA0EFE4EEA03034FEA154800FA0C
:1021E0000CF4B9FBF8F11FFA85FE08FB1192180CEC
:1021F00001FB0EF640EA0242964221D9AA1801F1EB
:10220000FF3003D2964201D9881E2A44921B9BB20A
:10221000B2FBF8F908FB192209FB0EFE43EA024360
:102220009E450FD9EB1809F1FF3604D29E4502D91D
:10223000A9F102062B44A3EB0E0346EA004693E7FE
:102240000846E3E74E46F6E74046A4E70B46B6E706
:102250008B4205D90FB1C7E900010026304675E76A
:10226000B3FA83FCBCF1000F0FD18B4201D3824241
:1022700009D8841A61EB030E0120002F6AD0C7E948
:10228000004E002662E76046F7E7CCF1200E03FA25
:102290000CF322FA0EF521FA0EF41D4301FA0CF3A9
:1022A00020FA0EF10B434FEA154A00FA0CF6B4FB84
:1022B000FAF91FFA85F80AFB19401C0C09FB08F112
:1022C00044EA0044A14202FA0CF23FD92C1909F168
:1022D000FF3004D2A14202D9A9F102002C44641AB1
:1022E0009BB2B4FBFAF90AFB194409FB08F843EA6C
:1022F000044188452CD9691809F1FF3304D2884577
:1023000002D9A9F10203294443EA0040A1EB0801E4
:10231000A0FB02894945C2464C4602D306D1464538
:1023200004D2B8EB020A69EB0504013897B1B6EBA9
:102330000A0361EB040606FA0EFE23FA0CF34EEADA
:10234000030326FA0CF6C7E900369AE74846C6E7C3
:102350004B46D9E73E46F9E60028B8BF40427047F1
:1023600030B501390024A24201D1002005E0035D0F
:1023700001340D5DAB42F6D0581B30BD0A4491428A
:1023800000F1FF3300D1704710B511F8014B03F88D
:10239000014F9142F9D110BD9A4208B501D9FFF71A
:1023A0001BF8814204D88B189842F8D3814202D19D
:1023B00083189942F3D3BDE80840FFF7DFBF884296
:1023C00010B501EB020302D983421C4607D8421E16
:1023D000994208D011F8014B02F8014FF8E7831831
:1023E0009A1A9A4200D110BD14F8011D03F8011D7C
:1023F000F7E702440346934200D1704703F8011BFC
:10240000F9E7C9B2034610F8012B1AB18A42F9D193
:1024100018467047002918BF0023F9E710F8012B70
:1024200011F8013B012A28BF9A42F7D0D01A704711
:10243000034613F8012B002AFBD1181A0138704704
:1024400010B56AB10139841810F8013B11F8012F59
:10245000934203D1A04201D0002BF5D1981A10BDB0
:102460001046FCE710B50139034632B111F8014FAF
:1024700003F8014B013A002CF7D11A440021934292
:1024800000D110BD03F8011BF9E738B503460D462E
:1024900069B9BDE83840FFF7B4BF431C044629467C
:1024A0001846FFF7AEFF0028F7D1204638BD0024BC
:1024B000F5E708B50620FFF75CFD012009F098F963
:1024C0002DE9F041884600F5A674002614B930467F
:1024D000BDE8F081D4E90175013F01D52468F5E735
:1024E000AB89012B06D9B5F90E30013302D028464D
:1024F000C04706436435EFE72DE9F8438046894637
:1025000000F5A674002614B93046BDE8F883D4E976
:102510000175013F01D52468F5E7AB89012B07D987
:10252000B5F90E30013303D029464046C84706436B
:102530006435EEE770477047F8B5074614460E4617
:1025400021B91146BDE8F840FEF75CBA22B9FFF7A1
:1025500079FA25462846F8BD00F059F8A0420FD276
:1025600021463846FEF74EFA05460028F2D031469D
:102570002246FFF703FF31463846FFF763FAE9E7E3
:102580003546E7E710B50C46B1F90E10FFF778FDB8
:102590000028ABBF236DA3891B1823F48053ACBF65
:1025A0002365A38110BD002070472DE9F0411F462F
:1025B0008B89DB0505460C46164605D5022300220D
:1025C000B1F90E10FFF74AFDA389B4F90E1023F4F8
:1025D0008053A38132463B462846BDE8F041FFF7D1
:1025E000F9BC10B50C46B1F90E10FFF737FD431CCE
:1025F000A38915BF206523F4805343F48053A3813E
:1026000018BFA38110BDB1F90E10FFF7F5BC51F84A
:10261000043C181F002BBCBF0B58C01870470000AB
:1026200008B503480EF053FFBDE8084000F060BC59
:10263000799901000FB413B5084C04ABFF2153F88E
:10264000042B01932046FEF71BFE20460EF051FEA0
:1026500002B0BDE8104004B0704700BFC55800206C
:1026600070B50848084D094EFFF7E4FF0024AA683A
:1026700055F80C1B30460134FFF7DCFF062CF6D171
:1026800070BD00BF7697010050910100BE97010018
:102690000146EFF31482014810F0F1BED497010017
:1026A00008B50448FFF7F4FF00231A46194602480C
:1026B0000DF0F4FFD7990100992700000148FFF7BA
:1026C000E7BF00BFCA97010070B5174A88B010680D
:1026D000516802AB03C30124144915488DF80E401C
:1026E0008DF80D400EF0F3FE124801F047F900207E
:1026F00001F074F9002001F07BF9002508220DEBB0
:1027000002012B46009504A811F033FE0646284628
:1027100001F08EF9204601F08BF9314606480EF0A3
:10272000D6FE08B070BD00BF0090010073430100E9
:10273000DE990100F5990100009A010010B51049D9
:1027400010480EF0C4FE104801F018F9002001F006
:1027500045F94FF4FA6000F00FFC0446002001F048
:1027600047F9002001F064F9084A094B0948002C98
:1027700018BF1A460121BDE810400EF0A8BE00BFE8
:10278000792F000092990100A99901008B9901000D
:102790008F990100B99901002DE940410F488BB094
:1027A000FFF776FF0E4B079303AB0193EFF3058121
:1027B00051B9EFF31483DB0706D568460A46252690
:1027C00003DF0BB0BDE84081019B1B69002BF8D0F3
:1027D0000022114668469847F3E700BFD2990100EE
:1027E000BD260000062810B5014606D90D48FFF7A2
:1027F00021FFBDE81040FFF733BF0B4A0C235943BC
:10280000531851585C689A6834B10848FFF712FFB2
:102810002346BDE8104018470548BDE81040FFF7C3
:1028200009BF00BFA998010050910100C0980100A4
:10283000D29801002DE9F04786B084220021694832
:10284000694EDFF8A881DFF8E49100AFFFF7D1FD12
:10285000FFF706FF65480EF04CFD002333700EF0C5
:1028600057FD04460EF059FD0D2C46D05D4B1868FF
:102870007F2842D8451C1D6003440A2C1C71EA467F
:102880003BD100235A491A461C469E469D4229D9EF
:10289000042C0BDD7D6849462846FFF7BFFD98BB39
:1028A0000123544833700EF012FE1DE091F800C071
:1028B000BCF10A0F04D0BCF1200F01D098420DD119
:1028C00081F800E03AB107F1180C0CEB840C0134EC
:1028D0004CF8142C002201330131D7E7002A08BF3D
:1028E0000A46F8E7002CD5D1842200213D48FFF7A5
:1028F00080FD40460EF0FDFCD5463378002BAED06F
:102900001837BD46BDE8F0873B492846FFF786FDEE
:1029100010B9FFF7A5FEE7E738492846FFF77EFD27
:102920000028F6D036492846FFF778FD40B9012C3B
:10293000DAD0B8680EF0D9FDC0B2FFF753FFD3E785
:1029400030492846FFF76AFDA8B9012C0FD0B868B6
:102950000EF0CBFD0228014604DD2B4803220EF0C9
:10296000B6FDC1E7294B53F820309847BCE728480B
:10297000FFF760FEB8E727492846FFF74FFDF0B99B
:10298000012C13D0B8680EF0B0FD044622480EF0BA
:102990009EFD00F0FFFA012000F05AFA204600F0F8
:1029A0000FFB00F08FF800F04DFF9DE71B48FFF78D
:1029B00041FE19480EF08BFD00F0ECFA94E718493F
:1029C0002846FFF72BFD48B9012C05D0B8680EF05A
:1029D0008CFD00F011FD87E71248C9E72246294621
:1029E0001148BCE710240020C4580020E8970100DB
:1029F00014240020EB97010055A60100FD9701006B
:102A000002980100179901000698010010C60020E5
:102A100032980100759F01004898010062980100FA
:102A200076980100799801008A98010016C4010087
:102A300008B500BF00BF00BF00BF2DE90F50094817
:102A40000EF045FD1EF0040F0CBFEFF30880EFF30E
:102A5000098000210EF0E3FC0546BDE80F50AF46AB
:102A600008BD00BF0A9A010008B504480EF02FFD0A
:102A70000348BDE808400EF02ABD00BF189A0100C7
:102A80002C9A010008B50D4800F078FF002000F0F6
:102A9000A5FF002000F0ACFF002000F0C9FF0120DE
:102AA00000F09CFF012000F0A3FF012000F0C0FF18
:102AB00000210348BDE808400EF009BD249C010038
:102AC000319C0100134BF7B593F82810124A134BB1
:102AD0001348144E144F154D002914BF11461946C2
:102AE0000EF0F5FC0024A31C284656F823108B0F8B
:102AF000022B01F0010201EA070108BF41F00201C7
:102B00000091214601340EF0E2FC062CEBD103B01B
:102B1000F0BD00BF942400202E9B0100329B0100D9
:102B2000409B0100002000E0FCFFFF1F6D9B0100A7
:102B30002DE9F04F684B19788BB0044699B9674A74
:102B400011706749096806215170B0F1005F4FF0BC
:102B500001021A7010D363480EF0B9FC4FF0FF3039
:102B60000BB0BDE8F08FB0F1005FF4D25B4B1A7888
:102B7000052A84BF00221A70DFF878A1574D9AF811
:102B8000280004F00209002800F08780564F95F8CD
:102B900000800FCF04AE0FC697E803000AAB86E8AB
:102BA000030003EB8803204653F8183C23F0030B83
:102BB00059460EF010FC0EF0ACFC0AF11F0A2AF088
:102BC0001F0324F00107064603934A465B46394635
:102BD00046480EF07CFC03A900963B465A46444802
:102BE0000EF075FC6978B9F1000F22D147F00102AF
:102BF000484688420BDB039B394943F828602B7811
:102C0000981C013341F820202B702878A8E7830016
:102C100003F1604303F500539C68A24202D09B6815
:102C20009F4204D1831C2E4941F8232098E70130AC
:102C3000DFE724F00304221D0139002088421CDB59
:102C40002388039960680FFA88F843EA064341F83D
:102C50002830039B000C03EB8808000440EA164070
:102C6000C8F8040029788B0003F1604303F5005392
:102C700002319C602970DA60C7E7830003F160438A
:102C800003F50053471CD3F808C0644503D1DB6843
:102C90009A423FF465AF3846D0E7B9F1000F14BF50
:102CA0004FF000434FF0804324F003041C436A7844
:102CB0000B4B44F00104904206DB2878821C43F859
:102CC0002240431C2B704BE7811C53F821108C428F
:102CD0003FF446AF0130EEE7C7590020C559002048
:102CE000002000E03F9A0100E48F01005E9A01009D
:102CF000949A0100942400200D490A6810B5130A23
:102D000003F07003C2F303121343002210469A42E9
:102D100009D1084B064A1870136823F0030343F0E7
:102D20000203136010BD941C013241F82400EEE749
:102D3000002000E0C5590020800010B500F160447B
:102D400004F50054A0680EF0DBFB8307FBD10B4BAE
:102D50000B4940F00102DA61A36821F0010123F080
:102D600001030331A36021F003010EF034FB0EF0E8
:102D7000D0FB044B23F01F03586110BD002000E07E
:102D80009D130100B32400200B4BD869002293004F
:102D900003F1604303F50053996819B1996841F054
:102DA000010199600132052AF1D1034AD36923F068
:102DB0000103D361704700BF002000E0F8B5214B4C
:102DC0001A6819681A6811F0020F04461F462AD0C3
:102DD000806900F06BFD0546B0B1012000F0FEFDFA
:102DE0001022284621460EF060FB0E4605460120C3
:102DF00000F0FEFD012E03D163692560A361F8BDDB
:102E0000022E01D1A561FAE70F4A136843F480232B
:102E1000136002230D4A3B60136823F0030343F061
:102E200002031360EBE7D207E9D507490A6822F4E9
:102E300080220A6001221A60044A136843F00303E7
:102E4000EFE700BF30ED00E0FCED00E0002000E027
:102E500038B5204C0546FFF74FFF2C2200212046B5
:102E6000FFF7C7FA1C4B00225A6065B904F11F0234
:102E700022F01F025A60012284F828201A6842F0CA
:102E800003021A6038BD012DFCD1144A4FF00041F5
:102E900011600421C2F8041D02F6C4521268D20760
:102EA00004D50F48BDE838400EF011BB0D4A0E485E
:102EB000116841F480311160196841F00301196013
:102EC00011680EF004FB094BFF221A604FF0FF322D
:102ED000D7E700BF94240020002000E02CE000E0B1
:102EE000D19A0100FCED00E00A9B010020ED00E01A
:102EF0002DE9F843184C194E19481A4FDFF8748021
:102F000024F001040EF0E3FA26F00106FFF7BAFD03
:102F100044F001037B61314620460EF05CFA8146A5
:102F20000EF0F7FA28F01F0532462146E8600E48F9
:102F30000EF0CDFA48460EF0ECFA414602460B4838
:102F40000EF0C5FAEA680A4829460EF0C0FA0323D3
:102F50007D603B60BDE8F883692A0000312A0000EB
:102F6000A29B0100002000E0B79B0100DE9B010056
:102F7000039C01009424002010B5044604480EF080
:102F8000A6FAB4F5FA6F4FF0FF30D8BF002010BD9D
:102F9000EE9C010070B5074D074E00242301214629
:102FA0005A59304601340EF092FA042CF6D1034BF4
:102FB0006B6070BD1CC600206E9C0100792F000064
:102FC0000428F8B5044607DDFFF7E4FF2148042193
:102FD0000EF07DFA0020F8BD1F4E204D3378204FB3
:102FE0006BB90821012000F077FD0C212860012039
:102FF00000F072FD01233860337000F005FC2B688F
:10300000184E002224015A709A70DA703219022187
:1030100019705168596039684D680B6025B9D2E95B
:1030200002010EF0B7FA05463319D3E90212284619
:103030000EF0C0FA01232B7528460FF053FC3868B8
:10304000456000F049FC084831590EF040FA3868F4
:10305000C1E700BF3F9C0100C8590020C0240020E8
:10306000C42400201CC60020569C01000146009B81
:1030700001480EF02CBA00BF839D0100F0B589B065
:1030800014460A46014602A81D460EF093FA21484E
:1030900000F074FC002000F0A1FC2A46214602A8A2
:1030A0000EF09AFA074600200E4600F0A1FC02A896
:1030B0000FF018FC012000F091FC059BA9B22046FE
:1030C0009847054601200C4600F092FC05991248ED
:1030D0000EF0FDF906980FF0F8FB23463A4631460C
:1030E00000950E480EF0F3F9002000F0A1FC01203D
:1030F00000F09EFC02A80FF021FC044600F0F4FC56
:10310000211807480EF0E3F906480EF0E0F909B07F
:10311000F0BD00BFF49C0100F99C0100139D01006B
:103120003F9D0100539D010000B589B040F6C413D6
:103130006A465121009308482023FFF79FFF002093
:1031400000F04CFC002000F053FC002000F070FC6C
:1031500009B05DF804FB00BF90CE002000B50A4A1C
:103160008BB010685168CDF80CD06B4603C34FF498
:10317000FA73049302AA202351210448FFF77EFF2B
:103180000BB05DF804FB00BF08900100E1CE002009
:1031900000B5E9228BB01423CDE9012301AB0393E1
:1031A0000023CDE90433CDE90633CDE9083302AA83
:1031B000202341210248FFF761FF0BB05DF804FBBB
:1031C000CDD0002000B589B01822002102A8FFF759
:1031D00010F9074B0093074B01936A46202340F2F6
:1031E000E9110548FFF74AFF09B05DF804FB00BF8D
:1031F000E39D01006D3000000ED1002000B50522D6
:1032000089B00723CDE90623692120236A460348B4
:10321000FFF734FF09B05DF804FB00BFF7D20020D0
:1032200010B590B003AB184614220021FFF7E1F867
:1032300020240021CDE9011022460DEB0400FFF708
:10324000D8F801AB09930DEB040223464121024853
:10325000FFF714FF10B010BD60D3002000B50F4B76
:1032600053F8080F8DB09B880090ADF804301C22F5
:103270000DF10A03002105A80393CDF808D0FFF74C
:10328000B8F802AB049304AA202340F2B111044819
:10329000FFF7F4FE0DB05DF804FB00BF08900100DD
:1032A000A1D3002010B59EB00FAC3C2200212046D7
:1032B000FFF79FF8182200216846FFF79AF8069456
:1032C00020242246002107A8FFF793F8234607AAE7
:1032D00040F259110348CDF820D0FFF7CFFE1EB0C1
:1032E00010BD00BF52D5002000B50C2289B00023CC
:1032F000CDE9002351216A4620230648FFF7BEFE90
:1033000020236A4669210448FFF7B8FE09B05DF83A
:1033100004FB00BFABD60020FCD6002030B593B034
:1033200008AD2024224600212846FFF762F800233A
:103330006422CDE9102300211C2201A8FFF759F8CF
:1033400023466A46492103480095FFF797FE13B0CC
:1033500030BD00BF65D7002000B589B040F2E473EE
:1033600006936A46202341210248FFF787FE09B0F1
:103370005DF804FB32CF002010B592B008AC2622D5
:1033800000212046FFF735F807231C22002101A861
:10339000ADF84630FFF72DF820236A464121034857
:1033A0000094FFF76BFE12B010BD00BF73CF00207A
:1033B00000B597B02C2200210DF12A00FFF719F873
:1033C0000B4B09931C224FF6FE63002102A8ADF8B7
:1033D0002830FFF70EF809AB019301AA202340F231
:1033E00019110448FFF74AFE17B05DF804FB00BF4F
:1033F00001FEFEFEB4CF00200C28014603D90D22A9
:1034000003480EF064B8034B53F82030184700BF50
:10341000A99D01005CC600202DE9F843036806461B
:103420000D4691461BB948200FF0B8F930600027CF
:10343000AF421BDB00F09CFA4FF000080446C84581
:1034400025DB00F095FA001B90FBF9F090FBF5F0FE
:1034500000F0DEFA0F49FDF7B1F8FDF7FFF9294654
:103460000246BDE8F8430C480EF031B83946012257
:1034700030680FF0B4F90137DAE7394630680FF0F9
:103480000BFA0137AF42F8DB08F10108D7E7002754
:10349000F8E700BF0000C842999D010013B510482D
:1034A00000F06CFA002000F099FA002000F0A0FA79
:1034B000002000F0BDFA002301930124214664227C
:1034C00001A80434FFF7A8FF412CF7D16422402162
:1034D00001A8FFF7A1FF01980FF074F902B010BD29
:1034E000E99D010008B503480DF0F1FFBDE8084073
:1034F000FFF7D4BFCC9D010010B5094C094A204606
:1035000000210DF0E4FF2046074A01210DF0DFFF06
:103510002046064A0221BDE810400DF0D8BF00BF8A
:103520006E9C0100429E0100849C0100559E01009A
:1035300003282DE9F843044607DDFFF7DDFF2148A6
:103540000321BDE8F8430DF0C2BF1F4E1F4D337875
:103550001F4F6BB90821012000F0BEFA0C21286032
:10356000012000F0B9FA01233860337000F04CF903
:10357000214618480DF0ABFF2B68174D002226019D
:103580005A709A70DA70AA1901211970516859603D
:1035900039684C680B60D2E9028924B94946404633
:1035A0000DF0F8FF044641464A4620460EF002F868
:1035B000386800232375446000F08EF9A959074844
:1035C000BFE700BFED9D0100C9590020C8240020BD
:1035D000CC2400200B9E010098910100249E010044
:1035E000F8B504460E460DF053FFB0F5803F1ED1EE
:1035F0000022676832602068B84216D205463168FA
:1036000015F8013B03F07F0393400B4433602560C2
:1036100090F90010002905DB054819460DF057FF09
:10362000002004E00732232AE5D14FF0FF30F8BD37
:103630004D9F010030B51749174A184887B00DF063
:1036400046FF4FF0FF327F23CDE90323002403AB75
:10365000019320460DF115030293ADF81440009438
:1036600000F0BCF9694601A8FFF7BAFF05462046FD
:1036700000F0BEF900990A480DF029FF29460948D3
:103680000DF025FF25B108480DF021FF07B030BD32
:103690000648F9E7E135000035360000919E01004B
:1036A000BC9E0100DE9E0100F69E01000D9F010000
:1036B00008B5054800F062F9FFF7BCFF0020BDE83F
:1036C000084000F0B5B900BF6F9F010070B54568B4
:1036D000043D25F003050446284600F0D1F82946AC
:1036E00006460F480DF0F3FE3EB94FF480332360D9
:1036F0000C48BDE870400DF0EABE08222146304675
:103700000DF0D3FE012902D10023236003E002293A
:1037100002D16368186070BD4FF48033F5E700BFD5
:10372000189F0100359F010038B5134C00256560D6
:10373000A0684388AB420ADC0023C4E90333A269D2
:103740001846194682B908B1C4E9033138BD294683
:103750000FF0B0F830B1037A23B1036862685B6898
:10376000134363600135E3E7D06801439068526812
:1037700003430120E6E700BFD024002070B5144DBC
:103780000646AC69002314353CB9062B0EDC10202C
:1037900000F074F9044668600CE03268A168526871
:1037A000914207D0254601336468EDE709480DF0E2
:1037B0008EFE2C4600236360336858680DF0F7FDD9
:1037C000A0600DF09DFE2660E060204670BD00BF49
:1037D000D02400207B9F010010B50446FFF7A4FF12
:1037E00023681A88012A07D1064A596853680B438F
:1037F00053600123237210BD022AFAD15868FFF7E3
:1038000097F9F6E7D024002070B50B4C26788EB9D6
:103810000A4D0B4801210DF05AFE2422314628465C
:10382000FEF7E7FD04200EF0B9FFA860FFF77CFF6C
:103830000123237070BD00BFCA590020D02400208E
:10384000B19F010038B50A480A4D0DF040FE0A4B01
:103850009C6924B90948BDE838400DF038BE23689A
:10386000D4E902121B7A28460DF031FE6468F0E7B5
:10387000EB9F010000A00100D024002036A0010031
:1038800008B5094B5A6800EA020130EA020201D089
:10389000002008BD98680EF0FFFF0028F8D0037ADA
:1038A000002BF6D1F4E700BFD0240020094BDA68E2
:1038B00030EA020201D19B6913B900221046704719
:1038C0009A68824203D11A68117A0029F6D15B689E
:1038D000F2E700BFD024002038B503681A88012A17
:1038E00005460AD15968134B024698680EF077FFD7
:1038F0002846BDE83840FFF76FBF022A19D10D4AAC
:1039000094694CB92846FFF739FF0446D4E90221EF
:1039100009480DF0DCFDEBE72268AA4201D064689B
:10392000EFE758680DF043FDA0600DF0E9FDE060A1
:10393000ECE738BDD0240020C59F0100084B402291
:103940001A60084A136843F080731360064B002224
:103950001A60064A136843F001031360704700BF02
:1039600090C60020FCED00E0041000E0001000E034
:10397000014B1868704700BF041000E008B5134BF6
:1039800013491B78CBB9C1F89030FFF7D7FF114B23
:103990000B66114B4B66D1F8903003F1180241F8D9
:1039A000220003F10C00002241F8202041F82320DE
:1039B0005A1CC1F89020184608BDD1F890300B2B46
:1039C000C4BF0023C1F89030E5E700BFCB59002009
:1039D000F4240020E99D010049A00100024B1A686F
:1039E000024B43F820207047041000E0F42400202C
:1039F000054A064B00F10C011B6852F8200042F802
:103A00002130181A704700BFF4240020041000E091
:103A100010B5FCF77BFD054B04461868FCF776FDF6
:103A200001462046FCF77EFE10BD00BF90C6002078
:103A30000F4B00F10C0270B553F8224053F82020D0
:103A4000A41A05462046FCF761FD0A4B0646186895
:103A5000FCF75CFD01463046FCF764FEFCF7FEFE19
:103A60002246034629460448BDE870400DF02FBDAC
:103A7000F424002090C600204DA00100024A1368E3
:103A8000034413600BF062BD8825002070B5144616
:103A9000104A631A0E4611680B44054613601CB9A0
:103AA00014F024FC204670BD20B92046BDE87040CB
:103AB000FFF7E4BFB4420BD92046FFF7DFFF04460F
:103AC0000028EFD032462946FEF758FC2846E7E7A3
:103AD0000446E7E788250020024A13680B44136078
:103AE00014F009BC88250020014B1868704700BFFE
:103AF00088250020DDE90001014BC3E90001704782
:103B000000240020014BD3E900017047002400206D
:103B10002DE9FF410A9E0C9FDDF83880CDF8088022
:103B200019460F9B039315460D9B0193044632469D
:103B30000B9B00972846A047054833462A46214656
:103B4000CDE90A7804B0BDE8F0410DF0C0BC00BF7B
:103B500071A0010038B5094C236853B90C2101202C
:103B6000FFF7BAFF0421054620600C20FFF7B4FFE1
:103B70002860206883680133836038BD8C2500206D
:103B800010B50D4B0D4A044601210DF0E5FC0C4B20
:103B90000C4A022120460DF0DFFC0B4B0B4A03219F
:103BA00020460DF0D9FC2046094B0A4A0421BDE805
:103BB00010400DF0D1BC00BF1D150100AEA00100EA
:103BC000113B0000B8A00100F53A0000C4A00100BC
:103BD000053B0000CCA0010038B5094C094D0A484E
:103BE00020604FF4805200216260A560FEF701FC66
:103BF0004FF4806200212846FEF7FBFB204638BDCB
:103C00009025002000000020000400201F2A10B58D
:103C10000CDC9401E4B20C4344EA002444EA03546B
:103C20009210044844EA0234204310BD4FF0FF30A4
:103C3000FBE700BF10004FEA10B4120409033BB9C0
:103C4000114341F0784141F4500110BC0EF083BEA5
:103C5000002BACBF4FF4C0644FF480640C43002BC6
:103C600044EA0204B8BF5B42014923431943ECE72D
:103C7000000850F870B592F90130002B1446064642
:103C80000D4691F9012011DA1BB2002A1A4609DA11
:103C90000E490EF0B4FE95F901200C49BDE87040C4
:103CA0000EF08BBEBDE870400EF0A9BE002A01DA0E
:103CB0002146F3E719460EF0CFFE95F9002094F95E
:103CC00000103046BDE870400EF0C6BEECA001000A
:103CD000F8B51F460B4C91F9013014EA230438BFA4
:103CE0000C4606460D4661780EF00EFF3A462178E6
:103CF00030460EF009FF224629463046BDE8F8401E
:103D00000EF0E3BEECA001002DE9F0412B4F9046F0
:103D100007F1180204460E460EF092FE07F11A0251
:103D20000546414620460EF08BFE95F9013090F98C
:103D3000001041EA0341074641F07B41204641F42F
:103D40007C410EF008FE95F9003097F9011041EA28
:103D5000034141F07B4141F47E410EF0FCFD44F211
:103D6000E6410EF0EEFD95F9003095F90120144979
:103D70001B0243EA024397F90120134319430EF053
:103D8000EAFD95F90030C3F3C00103F0070343EAED
:103D9000C11141F4884141F070010EF0D2FD96F955
:103DA00001100C220EF073FE95F9002096F9001018
:103DB0002046BDE8F0410EF06ABE00BFD4A001006D
:103DC00000C0A0FB4368142B10B404460DDC01F5C1
:103DD0008073B3F5FF7F08D8C1F3470141EA0221A0
:103DE00041F4504110BC0EF0ACBD01F57F20114BE9
:103DF00000F6FF7098421AD80B0A03F4006343EAF6
:103E00008253C1F34A021343CA0F43EA82630A0191
:103E100002F47C124909134301F40051194341F0A3
:103E20007041204641F4004110BC0EF094BD10BC1E
:103E3000704700BFFCFF1F0038B5194A04460EF05A
:103E4000FFFD90F9015090F90000012202FA05F3FC
:103E5000824013439BB20E284FEAA33101D00728BA
:103E60000FDC0E2D01D0072D0BDCDBB201F00101C0
:103E700043EA0121204641F43441BDE838400EF0C8
:103E800060BD8903C3F30C0301F48041194341F081
:103E90006941204641F43411BDE838400EF05BBD65
:103EA000EEA0010001F2FF7240F6FC739A4210B4DA
:103EB00006D8C1F34A0141F4604110BC0EF041BD87
:103EC00001F1FF13124A03F57F4393421ED8CA0F34
:103ED000C1F3C0439B1A5C425C41C1F34A0343EA0D
:103EE000C4230C4C04EA0114C1F3804143EA826309
:103EF0008A1A514243EA0403514143EA413141F0F5
:103F0000704141F4004110BC0EF025BD10BC70475B
:103F1000FCFFFF010000FF032DE9F843884611462E
:103F20000622064699469DF820700EF01EFD0722D7
:103F30000446414630460EF018FD502F054670D01D
:103F400020D8102F57D008D8002F42D02A464146FB
:103F50003046BDE8F8430EF09ABD202F00F088806F
:103F6000402FF3D1072855DC072C53DC00F0070164
:103F700004F0070444EA011141F4864130460EF092
:103F8000E0FCE3E7702F00F090800FD8602FDDD1C8
:103F9000631EDBB2062B00F28180431EDBB2062BD0
:103FA0007CD840EAC40141F4814142E0A02F49D0CD
:103FB000C02FCBD1631EDBB2062B00F28980431EDB
:103FC000DBB2062B00F2848040EAC40141F4824156
:103FD0002FE0210441EA0021014341F06B41B9F196
:103FE000000F02D041F4800101E041F4801130461D
:103FF0000EF0B1FCAAE7010241EA0041214341F081
:104000006B41B9F1000F02D141F43001EFE741F407
:10401000C001ECE7290241EA0541214341F06A4130
:10402000E0E7072807DC072C05DC40EAC40141F47F
:10403000804189B2A2E7290241EA0541214341F0CA
:104040006A41D4E7631EDBB2062B0AD8431EDBB2FB
:10405000062B06D840EAC40141F4804141F04001FA
:10406000E7E7290241EA04441C492C432143BEE707
:10407000631EDBB2062B08D8431EDBB2062B04D826
:1040800040EAC40141F48641E8E7290241EA0441DB
:10409000294341F07B4141F47041A8E7290241EAFC
:1040A0000541214341F07A41F5E7631EDBB2062B5F
:1040B00008D8431EDBB2062B04D840EAC40141F401
:1040C0008141CBE7290241EA05410C430449CDE790
:1040D000290241EA05410C430249C7E7300080EA62
:1040E00000F020FA00F040FA10B5104904460EF036
:1040F00032FC0F490EF02FFC4FF40C510EF021FC56
:104100000C490EF028FC0C490EF025FC0B498A1CCA
:104110001431FFF7AFFD44F2026120460EF011FCAE
:104120004FF40C51BDE810400EF00BBCF04B2DE9E4
:104130000D0B4FEA5002ADF2001DADF2D4A001000C
:104140002DE9F041164606221C469DF818800546CA
:104150000EF00BFC2D4B33F918305A42A2420746A1
:1041600001DC9C420EDD2246072128460EF0CCFCE5
:1041700044F2074141EAC70189B228460EF0E1FB4B
:1041800007270024B8F1080F2BD004D8B8F1000F8E
:1041900033D0BDE8F081B8F1100F0FD0B8F1180F8F
:1041A000F7D123463A4696F9011028460EF0E8FB6F
:1041B000231D1BB23A4696F9001022E084EAE4710E
:1041C000A1EBE47196F9014041EA073141EA04416B
:1041D00041F0784141F470612846BDE8F0410EF0AD
:1041E000BABB002C96F90110B8BF644244EA073408
:1041F00044EA014406492143EEE796F901102346BB
:104200003A462846BDE8F0410EF0BABB20970100BF
:10421000000F20F870B5054609480A4E0DF057F911
:1042200000242B69A34204DC0748BDE870400DF070
:104230004EB9AB683046195D0DF049F90134F0E72D
:104240002AA1010034A101000B9F01002DE9F743D1
:10425000174688461B4A9DF8286039460446994609
:104260000EF0EEFB0546B8F1000F1FD0164A494686
:1042700020460EF0E5FB804690F9012095F90110EB
:10428000009600232046FFF747FE98F9002095F995
:104290000010009601232046FFF73EFE2A463946CD
:1042A000204603B0BDE8F0430EF00FBC082299F998
:1042B000011020460EF059FB95F901100096434677
:1042C0000246E8E7ECA00100EEA001002DE9F0476E
:1042D0000F4692F90110DFF8AC80DFF8AC900822AD
:1042E00004460EF042FB224A0546394620460EF0AF
:1042F000A7FB204906464FEA054A20464AEA010143
:104300000EF029FB96F9001045EA014141EA080147
:104310000EF021FB184B96F9011043EA01410EF013
:104320001AFB49460EF017FB14494AEA01010EF048
:1043300012FB134B96F9011043EA01410EF00BFBFF
:1043400049460EF008FB96F9011045EA014141EAA1
:1043500008010EF000FB97F9011009220EF097FBFF
:1043600097F9001020460C22BDE8F0470EF08FBBF5
:10437000ECA00100200CA0F10CFC00FA2009C0F117
:1043800009F900FA00F900FA0C0C49EAF8B51446EC
:104390002A4A05460F460EF053FB1F2C064690F99D
:1043A000002030D804F00301A310090141EA0331D1
:1043B0000A432349284611430EF0CDFA634203F025
:1043C000030296F900301F491B0243EA8213C4F12D
:1043D0002002C2F3820243EA023396F9012013431A
:1043E00019430EF0B8FA96F9011041EA841444EA30
:1043F000C10189B228460EF0A4FA32463946BDE81A
:10440000F8400EF062BB202C90F901100BD1284629
:104410000EF022FB96F9011041EAC10141F48041FE
:1044200041F04001E5E7203C42EA841444EAC1013E
:1044300089B228460EF085FAECE700BFECA0010037
:1044400000095FEA100059EA2DE9F8431C469DF87F
:10445000209091F90130614F17EA230738BF0F46CA
:10446000B9F1180F9ABF5E4B33F919300023154686
:104470005A42A2420646884601DC9C421DDD224685
:10448000072130460EF040FB44F2074141EAC501E6
:1044900089B230460EF055FA07250024B9F1080F0D
:1044A00064D014D8B9F1000F00F08F803A4641462D
:1044B0003046BDE8F8430EF008BB97F90130AB4237
:1044C000ECD1294607220EF0F3FA0725E6E7B9F109
:1044D000100F0FD0B9F1180FE8D123462A4697F9EB
:1044E00001103046FFF7A8FB231D1BB22A4697F99F
:1044F00000106EE01F2C97F9012011DC14F11F0F42
:104500001EDB072A0EDC072D0CDCE90041EA8411D2
:10451000114341F4F04189B230460EF012FAC5E77A
:10452000FF2C14DCE143C90F120342EA4122002CA4
:1045300042EA0545B8BF64422A492C43214311E0B1
:1045400014F1FF0FEEDA14F5805FAFDD02E0B4F591
:10455000805FABDA110341EA0541214341F0784124
:1045600041F4100130460EF0F6F99FE71F2C97F941
:1045700001200BDC14F11F0F11DB04F01F0142EAD4
:10458000811141EAC50141F40841C4E7FF2C0DDC6B
:10459000120342EA0545E4B22C431349CEE714F175
:1045A000FF0FF5DA14F5805F80DD03E0B4F5805F7E
:1045B000BFF67CAF110341EA0545C4F30B01294363
:1045C00041F0784141F43001CCE797F901102346DE
:1045D0002A463046FFF730FB68E700BFECA0010039
:1045E00020970100000C10F8000E30F82DE9F04F74
:1045F00089B0036805934368079304464FF0000BA6
:10460000079B9B4502DB09B0BDE8F08F059B03EBE0
:10461000CB00824B4178B0F90290456801F00F025F
:10462000049203EB42072268821A4FEAE20A09EB7E
:104630000A020692059A12F83B6006F00702A2F100
:10464000070C0292DCF100024FEA111142EB0C025E
:1046500003EB41080392DD2E00F2AA84DFE816F096
:10466000ED00A804A804A80407014504A804070154
:10467000A804A804A804A8040701A804A804070122
:10468000A804A804A804A80407018B03A804070130
:104690004003A804A804A80407018B03A804070189
:1046A000A804A804A804A80407018B03A8042603EF
:1046B000A804A804A804A80407018B03A8042603DF
:1046C000A804A804A804A80422018B03A8042201BA
:1046D000A804A804A804A80422018B03A8042201AA
:1046E000A804A804A804A80407018B03A8040701D0
:1046F000A804A804A804A80407018B03A8040701C0
:10470000A804A804A804A80407018B03A8040701AF
:10471000A804A804A804A80407018B03A80407019F
:10472000A8045203620380035A018B03A804830187
:10473000A80452036203800307018B03A8047D01D0
:10474000A8045203620380035A018B03A804E0010A
:10475000A80452036203800307018B03A8048901A4
:10476000A804A804A804A80409035804A8040C0376
:10477000A804A804A804A804A804A804A804A804D9
:10478000A804A804A804A80422019A04A8042201E9
:10479000A804A804A804A8042201A804A8042201CB
:1047A000A804A804A804A80407018B03A80407010F
:1047B000A804A804A804A80407018B03A8040701FF
:1047C000A804A804A804A804E0008B03A804E0003F
:1047D000A804A804A804A804E0008B03A804E0002F
:1047E000A804A804A804A8045A018B03A8048C02F6
:1047F000A804A804A804A80407018B03A804400285
:10480000A804A804A804A8043A038B03A804A804D5
:10481000A804A804A804A8043A038B03D4A00100A8
:1048200016F008061CD046B1012D08D104990022CB
:1048300013F8111020460EF067F9002571E0029B75
:10484000072B07D097F9012098F9011020460EF0A8
:104850002FF9F2E7424639462046FFF70BFAECE71C
:104860002B463A46039920460EF096F9E5E716F0F6
:10487000080907D0B9F1000FDFD006F0F006009666
:10488000434609E02B46D84A039920460EF084F9A6
:1048900006F0F006D44B00963A4603992046FFF7FF
:1048A000D5FCCAE7082297F9011020460EF05DF802
:1048B00016F0080381461CD098F9011003B30922B1
:1048C00020460EF052F84FEA094106F0F00641EAA0
:1048D0000925302E45EA000514D1C4492943204654
:1048E0000EF039F897F901104A4620460EF0CFF83D
:1048F000A3E72046AAB209210EF006F90920E2E753
:104900000846E0E70843BA49014320460EF023F881
:10491000B849E3E71F2D15DD40F2AC53A3614FF01A
:10492000FF3594F828301BB9E369226943F82B203E
:104930006B1C40F0E481B048294609B0BDE8F04F57
:104940000CF0C5BD002DECD006F0F003AAB297F92B
:10495000011020460EF02CF96FE7424639462046FA
:10496000FFF7B4FC69E7AAB239462046FFF70EFD0F
:1049700063E798F90110082220460DF0F6FF9F4AE0
:104980000646394620460EF05BF89D494FEA064838
:10499000054648EA010120460DF0DDFF994948EA45
:1049A00001010DF0D8FF95F901209749DFF87C82CD
:1049B00046EA024211430DF0CEFF95F900100A02BB
:1049C00042EA0142914911430DF0C5FF95F90010EB
:1049D00041EA08010DF0BFFF95F900100A0242EA12
:1049E00001428B4911430DF0B6FF95F9001041EAE1
:1049F00008010DF0B0FF95F90020864946EA02460D
:104A0000314320460DF0A7FF0E2297F901100EF05A
:104A10003EF8049B1946804B0C2213F9111064E7F1
:104A2000764A394620460EF00BF81FFA85F80646FE
:104A3000B8F1000F44D0B8F11F0F90F9010031D840
:104A40000023424601460820FFF7E0F801462046D1
:104A50000DF081FFC8F120031F2B454696F9010098
:104A600096F900201BD84FEAA30C9B01D9B241EA6A
:104A70000C3141EA0021114341F06A4141F49001B7
:104A800020460DF068FF96F90010002308462A46DC
:104A9000FFF7BCF8014620460DF05DFF10E04FF037
:104AA000FF31EDE7B8F1200F96F900100ED1024664
:104AB00020460DF0D1FF0022317820460EF024F878
:104AC0003246394620460EF000F8B6E6AAB2002378
:104AD000203AFFF79BF8014620460DF03CFFEAE73D
:104AE00098F90110082220460DF03FFF434A064680
:104AF000394620460DF0A4FF41494FEA06480546D5
:104B000048EA010120460DF026FF3E4948EA01012E
:104B10000DF021FF95F901203B49DFF8108146EAAD
:104B2000024211430DF017FF95F900100A0242EA04
:104B300001423A4911430DF00EFF95F9001041EA88
:104B400008010DF008FF95F900100A0242EA01423F
:104B5000334911430DF0FFFE4BF658710DF0F1FE95
:104B600095F9001041EA08010DF0F5FE95F90020D5
:104B70002C4946EA024643E7204A394620460DF0D2
:104B80005FFF0646002D9BD01F2D90F901C04FD826
:104B9000614601232A460820FFF738F801462046DF
:104BA0000DF0D9FEC5F1200396F901209901C9B293
:104BB00041EA02219B1041EA033196F90030194382
:104BC00041F06A4141F4B0010DF0C5FEAB0196F928
:104BD0000020A910DBB243EA013343EA0223124961
:104BE0001343194357E700BFEEA00100F0F0B0FBFC
:104BF000F0FCB0FB10C000FB1FA10100ECA0010005
:104C0000200CD0F12009A0F200FE30FA0CF010FACE
:104C100009F030FA00FC30FAD4A0010009F000FAE3
:104C200009F040FA00FC50FA20005FEA000E5EEA4C
:104C3000202D90F90010DFF858830AD162462046F3
:104C40000DF00AFF96F9001041EA012141EA08013E
:104C500021E7203DA801C0B2AD0240EA0C2305F4D3
:104C6000E0452B430B43BE49204619430DF073FE2C
:104C7000E8E7802300226AE6BA4ABB4E394620465E
:104C80000DF0DEFE90F901301902054641EA0341BC
:104C9000314320460DF05FFE95F90030190241EADC
:104CA000034131430DF057FE2A460AE716F0080685
:104CB00004D0002E3FF4C1AD424606E0AB4A039952
:104CC0002B4620460DF068FFA84A39462046FFF7DC
:104CD0001BF8B2E552463146A5480CF0F8FB1EE63B
:104CE000C3682A4639462046FEF7F2FF94F828307A
:104CF0000BF1010B1BB9E369226943F82B200BF17F
:104D0000010B7DE498F90110082220460DF02DFEDC
:104D100006F01806024600964B4639462046FFF735
:104D200093FB8AE506F01806082E01D006D876B95E
:104D30002A46082120460DF0E7FE08E0102EF7D0A5
:104D4000182E04D12A46894920460DF01EFF874AB5
:104D500000964B4697F901102046FFF7F1F96CE5F4
:104D6000824A414620460DF06BFE06F0180600967A
:104D70004B460246EEE7320731D513F911100922EE
:104D800020460DF0F2FD98F9011005460822204654
:104D90000DF0EBFD80463946724A20460DF050FE7C
:104DA00026F00F06F3B2602B90F9007090F9019095
:104DB0006DD025D8302B04D01ED8102B01D0202B3D
:104DC00029D1029B052B04D12A46394620460DF0F5
:104DD0002BFF4246494620460DF026FF1BE0B9F165
:104DE000000F3FF42AAD2A46604920460DF0CDFE63
:104DF0004FF008080925CEE7402B2AD0502BDFE7DB
:104E0000B02BDED003D8702B50D0A02BD8E7C02B0E
:104E10004CD0D02B3BD0636894F82810142BCCBF17
:104E20000420022041B1E269069B52F8231052F897
:104E30002A3004391B1AC91A76B2402E48D040DCF9
:104E4000202E4AD0302E4AD0102E7FF4F6AC00220D
:104E50003FE0029B48EA0941052B41F06B4111D12B
:104E600041F4406120460DF076FD45EA074141F0EE
:104E70006B4141F460610DF06EFD3E4920460DF03E
:104E80006AFDC8E741F4801141F44061F6E74A4603
:104E9000414620460DF0C8FE029B052BBBD147EAD8
:104EA000054141F06B4141F4E001EDE742464946DE
:104EB00020460DF0B9FE029B052BACD145EA074117
:104EC000EFE7602E0DD0702E0DD0502E7FF4B5ACD4
:104ED00001222046FEF776FFAFE40822F9E702221E
:104EE000F7E70B22F5E70A22F3E7B9F1000F3FF4E9
:104EF000A4AC94F8281039B1E369069A53F822104B
:104F000053F82A30C91A02392046FEF7CBFF94E441
:104F1000194A236A911E204653F82550FEF7AAFE2F
:104F2000164A2046911EFEF7A5FE20461449FEF7BC
:104F300083FF20461349FEF77FFF20461249FEF704
:104F40007BFF2A46204606210DF0DEFD44F2B071BB
:104F500020460DF0F6FC0D490DF0FDFC6DE400BFA0
:104F600020005FEAECA001000000D0F1EEA00100FB
:104F7000F2A001000C0C5EEAD6A00100D8A001004E
:104F8000DEA00100DCA00100DAA00100180D0DF286
:104F9000E0705FEA6368013B9A453FF44EAC94F8D9
:104FA00028100029B0D0616923690439C91AABE718
:104FB0005246314601480CF08AFA3EE406A101004F
:104FC00038B500250446056180F82850FFF78CF8B5
:104FD0002046FFF70BFB2369C4E90453012384F83F
:104FE00028302046FFF780F82046FFF7FFFA0449F3
:104FF00020460DF0B0FC0349BDE838400DF0ABBCD5
:105000000B0D4FEAF08BBDE82DE9484106F0CEFAD2
:1050100002F052FBEFF30583A3B9EFF31483DB0730
:1050200010D50A486D2603DF0948FEF7A7FC09489A
:10503000FEF7A4FC0848FEF7A1FC0848BDE848417B
:10504000FEF79CBC01480BF049F9EDE79C250020D8
:1050500039A1010055A101006FA1010088A1010043
:10506000032808B506D90FF0AEFF092303604FF0FF
:10507000FF3008BD034B53F83030002BF3D0002035
:10508000F7E700BF2026002038B504460D46FFF79D
:10509000E7FF0028A1BF054B03EBC40253F834001F
:1050A0005268ACBF2A60002038BD00BF2026002017
:1050B0002DE950410DF0D4FDD8B115484FF0FF3126
:1050C000442603DF134B002453F83420BAB10134D3
:1050D000042CF9D10FF077FF172303604FF0FF3452
:1050E0000DF0BEFD78B10A48452603DF2046BDE835
:1050F00050814FF0FF3106480AF052FAE2E70122F0
:1051000043F83420ECE702480AF0D6FAEEE700BF95
:10511000C81B012020260020034B43F8301003EB6E
:10512000C0035A60704700BF20260020024B0022B7
:1051300043F83020704700BF202600200B68013361
:105140000B60014B1B68184794C600202DE9F04FF7
:1051500085B09B460E9CDFF890A0012CB8BF0124BF
:10516000012B0CBF3023202315468046894601942D
:10517000029301260A2700220AF101040AB9AA456E
:105180001FD2B5FBF4F049463030C047013601224A
:10519000013F012FB5FBF4F14FF00A0304FB115559
:1051A000BAFBF3FAE8D1494605F13000C047BBF13C
:1051B000030F03D1019B9C1B002C0FDC05B0BDE845
:1051C000F08F019BBB42E3DBBBF1020FE0D8494605
:1051D000029803920136C047039AD9E74946202036
:1051E000C047013CE8E700BFFFC99A3B014B18608C
:1051F000704700BF94C6002070B5054E04464518A0
:10520000AC4200D170BD336814F8010B9847F7E742
:1052100094C6002030B58BB004460D460DF08CFFCF
:1052200088B1282200216846FDF7E3F82B46224684
:10523000694609480DF0ADFF019B13B168460EF0B9
:10524000F9F80BB030BD00900B4622466946034882
:105250000DF09FFFF5E700BF5D3401003D510000F8
:1052600073B5002205460E460FF084FE044650B189
:10527000084B00930848094933462A460EF0FFF8C8
:1052800008980FF050FE28463146FFF7B5FF20463C
:1052900002B070BDEFB80100C4A10100B3A10100CC
:1052A00030B585B0CDE901010446002501A90548C6
:1052B00003950DF06EFFDDE902309842B8BF25542A
:1052C00005B030BD6D31010037B50122042105461E
:1052D0000FF050FE002814BF0124002407D0054B16
:1052E00000932A460423044904480EF0C8F82046D7
:1052F00003B030BD1FA201000AA20100C4A1010039
:105300002DE95041FAF77CFFC0B183790C2B15D100
:1053100082689AB1D3688BB10B4B91689B689942B4
:105320000FD10EF0C6F828B11046452603DF002045
:10533000BDE8508110460AF0BFF9F8E76FF015009C
:10534000F6E74FF0FF30F3E7F057002010B54FF0CD
:105350002003EFF3118483F31188BFF36F8F00F004
:1053600027F8094A0123C2F840354FF08042C2F8BD
:105370007835064B4FF0FF329A62DA6284F3118877
:10538000BFF36F8F002010BD00E0014000ED00E092
:10539000054B1B68082B01BF044B1868B0FA80F05E
:1053A000400918BF00207047300100103401001080
:1053B00008B54FF080430022C3F80C21C3F8102138
:1053C000C3F838254FF0805203F54043D2F8041457
:1053D000C3F82015D2F80814C3F82415D2F80C1419
:1053E000C3F82815D2F81014C3F82C15D2F81414E9
:1053F000C3F83015D2F81814C3F83415D2F81C14B9
:10540000C3F84015D2F82014C3F84415D2F8241478
:10541000C3F84815D2F82814C3F84C15D2F82C1448
:10542000C3F85015D2F83014C3F85415D2F8341418
:10543000C3F86015D2F83814C3F86415D2F83C14D8
:10544000C3F86815D2F84014C3F86C15D2F8442498
:10545000C3F87025FFF79CFF10B1334B334A1A6035
:10546000FFF796FF18B1324BFB22C3F81825FFF760
:105470008FFF48B12F49304B0A681B6822F00F029A
:1054800003F00F0313430B60FFF782FF18B12B4BA0
:105490004FF400721A604FF08043D3F80024D20713
:1054A00044BF6FF00102C3F800244FF01023D3F87B
:1054B0000022002A03DBD3F80432002B2FDA204B22
:1054C0000122C3F80425D3F80024002AFBD04FF0B2
:1054D00010221221C2F80012D3F80024002AFBD0B7
:1054E0004FF010231222C3F80422154B1A46D3F8AA
:1054F00000140029FBD00021C3F80415D2F80034B1
:10550000002BFBD0BFF34F8F0E490F4BCA6802F43C
:10551000E0621343CB60BFF34F8F00BFFDE70B4B3F
:105520000B4A1A6008BD00BF8C560040488103003A
:1055300000F00040E40E0040580200104096024087
:1055400000E0014000ED00E00400FA0598C60020EC
:105550000090D003B0F5000F08B505D3074B084AFB
:1055600008488721FBF70AFA074A91689368CB1A23
:1055700023F07F438342F9D308BD00BF67A2010037
:1055800038A20100D0A2010010E000E008B50A4BEB
:105590000A4A1B68B3FBF2F3094AB2FBF3F28242F8
:1055A00005D2084B084A09489221FBF7E7F958430E
:1055B000BDE80840FFF7CEBF98C6002040420F006C
:1055C000FFFF7F0086A2010051A20100D0A20100CE
:1055D000054B1B68082B05D1044B1868003018BF19
:1055E0000120704700207047300100103401001086
:1055F000024A00231360024A137070471C7C024069
:10560000CD59002007B5084A00231370074A0193BB
:10561000137001238DF80430054B01A81B689847CF
:1056200003B05DF804FB00BFCC590020CF59002027
:105630004028002008B500F00F03082B06D9074BBF
:10564000074A084840F29221FBF798F910F0800FC2
:1056500014BF0420282000EB830008BD01A901002D
:105660003FA40100C3A9010013B5124C0122236815
:1056700002FA01F10B4323600F4B1B68194003062C
:105680000DD551B906238DF804308DF806008DF83C
:1056900007100A4B01A81B68984702B010BD0029EB
:1056A000FBD106238DF804308DF806008DF8072015
:1056B000EFE700BF1C270020AC2600204028002078
:1056C0009A4238B506D2154B154A4FF4E971154880
:1056D000FBF754F90C684CB104F06044B4F1005F7E
:1056E00004D0114B0E4A4FF4EA71F0E74C680D6894
:1056F000A3429BBFC0E9005308680021E41A97BF8A
:10570000C018C0E900514C6008609A4203D1201CC7
:1057100018BF012038BD0020FCE700BF57A60100DC
:10572000C2A30100C3A901006CA6010010B50C685A
:1057300004F06043B3F1005F06D00A4B0A4A0B48FD
:1057400040F2F911FBF71AF94B689A4228BF1A4642
:10575000C0E90042981A4860144400300C6018BF39
:10576000012010BD6CA80100D5A30100C3A9010050
:1057700038B50B6803F06044B4F1005F1D4606D0F5
:105780000C4B0D4A0D4840F21A21FBF7F7F84C6814
:10579000A24228BF2246002A08BF0023C0E90032E7
:1057A000A4EB02042A444C600A6014BF01200020CC
:1057B00038BD00BF6CA80100EAA30100C3A9010025
:1057C00008B5034A034B044840F2A221FBF7D6F880
:1057D0004DA4010001A90100C3A9010000F00F02BE
:1057E000082A08B501D9FFF7EBFF054B10F0800F31
:1057F000A3F1900018BF184600EB021008BD00BFCF
:10580000B027002008B5034A034B044840F2B521F5
:10581000FBF7B4F85DA4010001A90100C3A90100D0
:10582000054B10B51C7820460DF094FE014620462D
:10583000BDE81040FFF718BFCF59002008B5034A54
:10584000034B04484FF4B971FBF798F895A3010096
:1058500001A90100C3A9010008B5034A034B04488C
:1058600040F28521FBF78AF835A4010001A9010067
:10587000C3A9010008B500F00F03082B06D9094B96
:10588000094A0A484FF49961FBF778F8084A10F082
:10589000800F14BFD2F81005D2F81405D84000F0DC
:1058A000010008BD6EA5010056A3010031A601004C
:1058B0000070024008B5034A034B044840F29B11B4
:1058C000FBF75CF8AEA3010001A90100C3A9010028
:1058D000F8B50D46096801F06043B3F1005F064674
:1058E00006D1124B124A4FF40E711248FBF746F8DC
:1058F0006C68944228BF1446402C04D90E4B0C4AC5
:1059000040F24221F1E70D4F224640233846FCF792
:1059100043FD68682A68001BC6E900742244686079
:1059200000302A6018BF0120F8BD00BF6BA801003D
:1059300003A40100C3A9010092A801004828002087
:10594000F8B50D46096801F06043B3F1005F064603
:1059500006D1134B134A40F25B211348FBF70EF8B4
:105960006C68944228BF1446402C04D90F4B0D4A52
:1059700040F26521F1E78CB10D4F402322463846B5
:10598000FCF70AFD37606B6874601B1B6B602B684B
:10599000201C23442B6018BF0120F8BD0460F2E7EF
:1059A0006BA801001AA40100C3A9010092A801007C
:1059B0004828002007B500238DF804300B4BD3F89E
:1059C0002025ADF80620D3F8C034094A002B13680F
:1059D0000CBF4FF480714FF001210B431360054B56
:1059E00001A81B68984703B05DF804FB00700240F3
:1059F0001C27002040280020074BBFF35B8F024686
:105A000053E8000F00EA020143E8001CBCF1000F5C
:105A1000F6D1BFF35B8F7047AC26002008B5FFF7C7
:105A2000E7FD084B93F89E20032A05D16FF0010093
:105A3000BDE80840FFF7E0BFD3F89030002BF5D069
:105A400008BD00BF2027002007B5FFF7D1FD0C4B94
:105A500093F88E20032A10D0D3F880306BB96FF002
:105A60008070FFF7C9FF06238DF804300823ADF8D6
:105A70000630044B01A81B68984703B05DF804FB8F
:105A8000202700204028002007B5FFF7B1FD0F4B6D
:105A900093F81E21032A06D16FF48070FFF7ACFF44
:105AA00003B05DF804FBD3F81031002BF8D16FF48C
:105AB0008070FFF7A1FF06238DF804308823ADF82E
:105AC0000630034B01A81B689847E9E72027002010
:105AD00040280020244B13B5D3F80044C3F80044F9
